{
  "contractName": "SpinProccessor",
  "abi": [
    {
      "inputs": [
        {
          "internalType": "address",
          "name": "usdt",
          "type": "address"
        }
      ],
      "stateMutability": "nonpayable",
      "type": "constructor"
    },
    {
      "anonymous": false,
      "inputs": [
        {
          "indexed": false,
          "internalType": "address",
          "name": "sender",
          "type": "address"
        },
        {
          "indexed": false,
          "internalType": "uint256",
          "name": "amount",
          "type": "uint256"
        }
      ],
      "name": "Deposit",
      "type": "event"
    },
    {
      "inputs": [
        {
          "internalType": "address",
          "name": "from",
          "type": "address"
        }
      ],
      "name": "totalDepositOf",
      "outputs": [
        {
          "internalType": "uint256",
          "name": "",
          "type": "uint256"
        }
      ],
      "stateMutability": "view",
      "type": "function",
      "constant": true
    },
    {
      "inputs": [],
      "name": "deposit",
      "outputs": [],
      "stateMutability": "payable",
      "type": "function",
      "payable": true
    },
    {
      "inputs": [
        {
          "internalType": "uint256",
          "name": "amount",
          "type": "uint256"
        }
      ],
      "name": "depositUsd",
      "outputs": [],
      "stateMutability": "nonpayable",
      "type": "function"
    },
    {
      "inputs": [],
      "name": "withdraw",
      "outputs": [],
      "stateMutability": "nonpayable",
      "type": "function"
    },
    {
      "inputs": [],
      "name": "withdrawUSdt",
      "outputs": [],
      "stateMutability": "nonpayable",
      "type": "function"
    }
  ],
  "bytecode": "0x608060405234801561001057600080fd5b50604051610c65380380610c658339818101604052810190610032919061011c565b336000806101000a81548173ffffffffffffffffffffffffffffffffffffffff021916908373ffffffffffffffffffffffffffffffffffffffff16021790555080600160006101000a81548173ffffffffffffffffffffffffffffffffffffffff021916908373ffffffffffffffffffffffffffffffffffffffff16021790555050610149565b600080fd5b600073ffffffffffffffffffffffffffffffffffffffff82169050919050565b60006100e9826100be565b9050919050565b6100f9816100de565b811461010457600080fd5b50565b600081519050610116816100f0565b92915050565b600060208284031215610132576101316100b9565b5b600061014084828501610107565b91505092915050565b610b0d806101586000396000f3fe60806040526004361061004a5760003560e01c80633ccfd60b1461004f5780634cc6fd1514610066578063c5d511e11461008f578063d0e30db0146100cc578063f2195ccd146100d6575b600080fd5b34801561005b57600080fd5b506100646100ed565b005b34801561007257600080fd5b5061008d6004803603810190610088919061071a565b61022d565b005b34801561009b57600080fd5b506100b660048036038101906100b191906107a5565b61038c565b6040516100c391906107e1565b60405180910390f35b6100d46103d5565b005b3480156100e257600080fd5b506100eb6104a9565b005b60008054906101000a900473ffffffffffffffffffffffffffffffffffffffff1673ffffffffffffffffffffffffffffffffffffffff163373ffffffffffffffffffffffffffffffffffffffff161461017b576040517f08c379a000000000000000000000000000000000000000000000000000000000815260040161017290610859565b60405180910390fd5b6000479050600081116101c3576040517f08c379a00000000000000000000000000000000000000000000000000000000081526004016101ba906108c5565b60405180910390fd5b60008054906101000a900473ffffffffffffffffffffffffffffffffffffffff1673ffffffffffffffffffffffffffffffffffffffff166108fc829081150290604051600060405180830381858888f19350505050158015610229573d6000803e3d6000fd5b5050565b60008111610270576040517f08c379a0000000000000000000000000000000000000000000000000000000008152600401610267906108c5565b60405180910390fd5b80600160009054906101000a900473ffffffffffffffffffffffffffffffffffffffff1673ffffffffffffffffffffffffffffffffffffffff1663dd62ed3e33306040518363ffffffff1660e01b81526004016102ce9291906108f4565b602060405180830381865afa1580156102eb573d6000803e3d6000fd5b505050506040513d601f19601f8201168201806040525081019061030f9190610932565b1015610350576040517f08c379a0000000000000000000000000000000000000000000000000000000008152600401610347906109ab565b60405180910390fd5b7fe1fffcc4923d04b559f4d29a8bfc6cda04eb5b0d3c460751c2402c5c5cc9109c33826040516103819291906109cb565b60405180910390a150565b6000600260008373ffffffffffffffffffffffffffffffffffffffff1673ffffffffffffffffffffffffffffffffffffffff168152602001908152602001600020549050919050565b60003411610418576040517f08c379a000000000000000000000000000000000000000000000000000000000815260040161040f906108c5565b60405180910390fd5b34600260003373ffffffffffffffffffffffffffffffffffffffff1673ffffffffffffffffffffffffffffffffffffffff16815260200190815260200160002060008282546104679190610a23565b925050819055507fe1fffcc4923d04b559f4d29a8bfc6cda04eb5b0d3c460751c2402c5c5cc9109c333460405161049f9291906109cb565b60405180910390a1565b60008054906101000a900473ffffffffffffffffffffffffffffffffffffffff1673ffffffffffffffffffffffffffffffffffffffff163373ffffffffffffffffffffffffffffffffffffffff1614610537576040517f08c379a000000000000000000000000000000000000000000000000000000000815260040161052e90610859565b60405180910390fd5b6000600160009054906101000a900473ffffffffffffffffffffffffffffffffffffffff1673ffffffffffffffffffffffffffffffffffffffff166370a08231306040518263ffffffff1660e01b81526004016105949190610a57565b602060405180830381865afa1580156105b1573d6000803e3d6000fd5b505050506040513d601f19601f820116820180604052508101906105d59190610932565b9050600081101561061b576040517f08c379a0000000000000000000000000000000000000000000000000000000008152600401610612906108c5565b60405180910390fd5b600160009054906101000a900473ffffffffffffffffffffffffffffffffffffffff1673ffffffffffffffffffffffffffffffffffffffff1663a9059cbb60008054906101000a900473ffffffffffffffffffffffffffffffffffffffff16836040518363ffffffff1660e01b81526004016106989291906109cb565b6020604051808303816000875af11580156106b7573d6000803e3d6000fd5b505050506040513d601f19601f820116820180604052508101906106db9190610aaa565b5050565b600080fd5b6000819050919050565b6106f7816106e4565b811461070257600080fd5b50565b600081359050610714816106ee565b92915050565b6000602082840312156107305761072f6106df565b5b600061073e84828501610705565b91505092915050565b600073ffffffffffffffffffffffffffffffffffffffff82169050919050565b600061077282610747565b9050919050565b61078281610767565b811461078d57600080fd5b50565b60008135905061079f81610779565b92915050565b6000602082840312156107bb576107ba6106df565b5b60006107c984828501610790565b91505092915050565b6107db816106e4565b82525050565b60006020820190506107f660008301846107d2565b92915050565b600082825260208201905092915050565b7f6f6e6c79206f776e657221210000000000000000000000000000000000000000600082015250565b6000610843600c836107fc565b915061084e8261080d565b602082019050919050565b6000602082019050818103600083015261087281610836565b9050919050565b7f546865206d696e696d756d20616d6f756e7420697320696e76616c6964000000600082015250565b60006108af601d836107fc565b91506108ba82610879565b602082019050919050565b600060208201905081810360008301526108de816108a2565b9050919050565b6108ee81610767565b82525050565b600060408201905061090960008301856108e5565b61091660208301846108e5565b9392505050565b60008151905061092c816106ee565b92915050565b600060208284031215610948576109476106df565b5b60006109568482850161091d565b91505092915050565b7f506c6561736520616c6c6f7720796f7572206d6f6e6579206669727374000000600082015250565b6000610995601d836107fc565b91506109a08261095f565b602082019050919050565b600060208201905081810360008301526109c481610988565b9050919050565b60006040820190506109e060008301856108e5565b6109ed60208301846107d2565b9392505050565b7f4e487b7100000000000000000000000000000000000000000000000000000000600052601160045260246000fd5b6000610a2e826106e4565b9150610a39836106e4565b9250828201905080821115610a5157610a506109f4565b5b92915050565b6000602082019050610a6c60008301846108e5565b92915050565b60008115159050919050565b610a8781610a72565b8114610a9257600080fd5b50565b600081519050610aa481610a7e565b92915050565b600060208284031215610ac057610abf6106df565b5b6000610ace84828501610a95565b9150509291505056fea264697066735822122060870de9cd8cb898b788aaa7b3f1b9a84813bc34ee4f9db2546a9bb99e36f75964736f6c63430008100033",
  "immutableReferences": {},
  "source": "// SPDX-License-Identifier: MIT\npragma solidity ^0.8.1;\n\nimport \"@openzeppelin/contracts/token/ERC20/ERC20.sol\";\n\ncontract SpinProccessor {\n    address private _owner;\n    ERC20 private _usdt;\n    mapping(address => uint256) _deposits;\n\n    event Deposit(address sender, uint256 amount);\n\n    constructor(address usdt) {\n        _owner = msg.sender;\n        _usdt = ERC20(usdt);\n    }\n\n    modifier onlyOwner() {\n        require(msg.sender == _owner, \"only owner!!\");\n        _;\n    }\n\n    function totalDepositOf(address from) public view returns (uint256) {\n        return _deposits[from];\n    }\n\n    function deposit() public payable {\n        require(msg.value > 0, \"The minimum amount is invalid\");\n        _deposits[msg.sender] += msg.value;\n        emit Deposit(msg.sender, msg.value);\n    }\n\n    function depositUsd(uint256 amount) public {\n        require(amount > 0, \"The minimum amount is invalid\");\n        require(\n            _usdt.allowance(msg.sender, address(this)) >= amount,\n            \"Please allow your money first\"\n        );\n\n        emit Deposit(msg.sender, amount);\n    }\n\n    function withdraw() public onlyOwner {\n        uint256 balance = address(this).balance;\n        require(balance > 0, \"The minimum amount is invalid\");\n        payable(_owner).transfer(balance);\n    }\n\n    function withdrawUSdt() public onlyOwner {\n        uint256 balance = _usdt.balanceOf(address(this));\n        require(balance >= 0, \"The minimum amount is invalid\");\n        _usdt.transfer(_owner, balance);\n    }\n}\n",
  "sourcePath": "/Users/cuong/Projects/spin-game/contract/contracts/Spin.sol",
  "compiler": {
    "name": "solc",
    "version": "0.8.16+commit.07a7930e.Emscripten.clang"
  },
  "schemaVersion": "3.4.9",
  "updatedAt": "2022-10-12T02:03:15.051Z",
  "networkType": "ethereum",
  "devdoc": {
    "kind": "dev",
    "methods": {},
    "version": 1
  },
  "userdoc": {
    "kind": "user",
    "methods": {},
    "version": 1
  }
}